:08000000803102288731F02F46
:100EC60040344034F030210099001A1F682F10304A
:100ED600950020008C0122008C01033023008C0039
:100EE60021009D0160309E000F308C0008302400E8
:100EF6008C000A30210097008B0108008731652796
:100F06008731E43000320032890B852F00320032FF
:100F16007D08F5007508F0007C08F6007608F100FB
:100F260000308400883085000008F7007708F2005A
:100F36007B088731A127873163008B2FF400720865
:100F4600031908007008F30073082000A000083099
:100F5600F3007308F80078080319BD2F0C1600007B
:100F6600A01F0C120000A0350C120130F802780800
:100F7600031DB12F7408F30073082000A000083089
:100F8600F3007308F80078080319D52F0C16000033
:100F9600A01F0C120000A0350C120130F8027808D0
:100FA600031DC92F7108F30073082000A000083044
:100FB600F3007308F80078080319ED2F0C160000EB
:100FC600A01F0C120000A0350C120130F8027808A0
:100FD600031DE12F0130F202A22F873163278731EB
:100FE600FC0087316427FD00F801F901FA01FB01D5
:0C0FF600A001A10120008731812F3C34B4
:020000040001F9
:04000E008CC9FFDFBB
:00000001FF
