:08000000803102288731F22F44
:100DF2000134FE34F030210099001A1FFE2E10300B
:100E0200950020008C0122008C01033023008C000D
:100E120021009D0160309E000F308C0008302400BC
:100E22008C000A30210097008B0108008631FB26D6
:100E32008731E43000320032890B1B2F003200323E
:100E42007B08F5007508F0007A08F6007608F100D4
:100E520000308400883085000008F7007708F2002F
:100E62007D08873139278731873185278731212FBF
:100E7200F4007208031908007008F3007308F900FF
:100E82000830F3007308F80078080319542F0C1681
:100E92000000F91F0C120000F9350C120130F802A3
:100EA2007808031D482F7408F3007308F90008300E
:100EB200F3007308F800780803196B2F0C16000072
:100EC200F91F0C120000F9350C120130F8027808F3
:100ED200031D5F2F7108F3007308F9000830F30057
:100EE2007308F80078080319822F0C160000F91F06
:100EF2000C120000F9350C120130F8027808031DBB
:100F0200762F0130F2023A2FFE307D06031D902F1C
:100F12007A08031D902F0230F0007008FC00FE30AA
:100F22007D06031D9C2FFE307B06031D9C2F043083
:100F3200F0007008FC00FE307B06031DA72F7D0821
:100F4200031DA72F0330F0007008FC00FE307A0664
:100F5200031DAF2F0530F0007008FC00FE307A064A
:100F6200031DB82F7B08031DB82FFC01FC0AFE30BD
:100F72007A06031DDD2FFE307D06031DDD2F0630B0
:100F8200F0007008FC00DD2F0130F0007008FD0752
:100F920008000130F0007008FB0708000130F00083
:100FA2007008FA0708000130FD0208000130FB0258
:100FB20008000130FA0208007C08013A0319C52F23
:100FC200033A0319CA2F013A0319CF2F073A03191B
:100FD200D42F013A0319D72F033A0319DA2FF12F2D
:100FE20008008631F9268731FC008631FA26FD0099
:100FF200F801F901FA01FB0120008731172F3C3477
:020000040001F9
:04000E008CC9FFDFBB
:00000001FF
